{
    "_format": "hh-sol-artifact-1",
    "contractName": "MyToken",
    "sourceName": "contracts/nonce.sol",
    "abi": [
        {
            "inputs": [
                {
                    "internalType": "address",
                    "name": "initialOwner",
                    "type": "address"
                }
            ],
            "stateMutability": "nonpayable",
            "type": "constructor"
        },
        {
            "inputs": [
                {
                    "internalType": "address",
                    "name": "sender",
                    "type": "address"
                },
                {
                    "internalType": "uint256",
                    "name": "tokenId",
                    "type": "uint256"
                },
                {
                    "internalType": "address",
                    "name": "owner",
                    "type": "address"
                }
            ],
            "name": "ERC721IncorrectOwner",
            "type": "error"
        },
        {
            "inputs": [
                {
                    "internalType": "address",
                    "name": "operator",
                    "type": "address"
                },
                {
                    "internalType": "uint256",
                    "name": "tokenId",
                    "type": "uint256"
                }
            ],
            "name": "ERC721InsufficientApproval",
            "type": "error"
        },
        {
            "inputs": [
                {
                    "internalType": "address",
                    "name": "approver",
                    "type": "address"
                }
            ],
            "name": "ERC721InvalidApprover",
            "type": "error"
        },
        {
            "inputs": [
                {
                    "internalType": "address",
                    "name": "operator",
                    "type": "address"
                }
            ],
            "name": "ERC721InvalidOperator",
            "type": "error"
        },
        {
            "inputs": [
                {
                    "internalType": "address",
                    "name": "owner",
                    "type": "address"
                }
            ],
            "name": "ERC721InvalidOwner",
            "type": "error"
        },
        {
            "inputs": [
                {
                    "internalType": "address",
                    "name": "receiver",
                    "type": "address"
                }
            ],
            "name": "ERC721InvalidReceiver",
            "type": "error"
        },
        {
            "inputs": [
                {
                    "internalType": "address",
                    "name": "sender",
                    "type": "address"
                }
            ],
            "name": "ERC721InvalidSender",
            "type": "error"
        },
        {
            "inputs": [
                {
                    "internalType": "uint256",
                    "name": "tokenId",
                    "type": "uint256"
                }
            ],
            "name": "ERC721NonexistentToken",
            "type": "error"
        },
        {
            "inputs": [
                {
                    "internalType": "address",
                    "name": "owner",
                    "type": "address"
                }
            ],
            "name": "OwnableInvalidOwner",
            "type": "error"
        },
        {
            "inputs": [
                {
                    "internalType": "address",
                    "name": "account",
                    "type": "address"
                }
            ],
            "name": "OwnableUnauthorizedAccount",
            "type": "error"
        },
        {
            "anonymous": false,
            "inputs": [
                {
                    "indexed": true,
                    "internalType": "address",
                    "name": "owner",
                    "type": "address"
                },
                {
                    "indexed": true,
                    "internalType": "address",
                    "name": "approved",
                    "type": "address"
                },
                {
                    "indexed": true,
                    "internalType": "uint256",
                    "name": "tokenId",
                    "type": "uint256"
                }
            ],
            "name": "Approval",
            "type": "event"
        },
        {
            "anonymous": false,
            "inputs": [
                {
                    "indexed": true,
                    "internalType": "address",
                    "name": "owner",
                    "type": "address"
                },
                {
                    "indexed": true,
                    "internalType": "address",
                    "name": "operator",
                    "type": "address"
                },
                {
                    "indexed": false,
                    "internalType": "bool",
                    "name": "approved",
                    "type": "bool"
                }
            ],
            "name": "ApprovalForAll",
            "type": "event"
        },
        {
            "anonymous": false,
            "inputs": [
                {
                    "indexed": true,
                    "internalType": "address",
                    "name": "previousOwner",
                    "type": "address"
                },
                {
                    "indexed": true,
                    "internalType": "address",
                    "name": "newOwner",
                    "type": "address"
                }
            ],
            "name": "OwnershipTransferred",
            "type": "event"
        },
        {
            "anonymous": false,
            "inputs": [
                {
                    "indexed": true,
                    "internalType": "address",
                    "name": "from",
                    "type": "address"
                },
                {
                    "indexed": true,
                    "internalType": "address",
                    "name": "to",
                    "type": "address"
                },
                {
                    "indexed": true,
                    "internalType": "uint256",
                    "name": "tokenId",
                    "type": "uint256"
                }
            ],
            "name": "Transfer",
            "type": "event"
        },
        {
            "inputs": [
                {
                    "internalType": "address",
                    "name": "to",
                    "type": "address"
                },
                {
                    "internalType": "uint256",
                    "name": "tokenId",
                    "type": "uint256"
                }
            ],
            "name": "approve",
            "outputs": [],
            "stateMutability": "nonpayable",
            "type": "function"
        },
        {
            "inputs": [
                {
                    "internalType": "address",
                    "name": "owner",
                    "type": "address"
                }
            ],
            "name": "balanceOf",
            "outputs": [
                {
                    "internalType": "uint256",
                    "name": "",
                    "type": "uint256"
                }
            ],
            "stateMutability": "view",
            "type": "function"
        },
        {
            "inputs": [
                {
                    "internalType": "uint256",
                    "name": "tokenId",
                    "type": "uint256"
                }
            ],
            "name": "getApproved",
            "outputs": [
                {
                    "internalType": "address",
                    "name": "",
                    "type": "address"
                }
            ],
            "stateMutability": "view",
            "type": "function"
        },
        {
            "inputs": [
                {
                    "internalType": "address",
                    "name": "owner",
                    "type": "address"
                },
                {
                    "internalType": "address",
                    "name": "operator",
                    "type": "address"
                }
            ],
            "name": "isApprovedForAll",
            "outputs": [
                {
                    "internalType": "bool",
                    "name": "",
                    "type": "bool"
                }
            ],
            "stateMutability": "view",
            "type": "function"
        },
        {
            "inputs": [],
            "name": "name",
            "outputs": [
                {
                    "internalType": "string",
                    "name": "",
                    "type": "string"
                }
            ],
            "stateMutability": "view",
            "type": "function"
        },
        {
            "inputs": [],
            "name": "owner",
            "outputs": [
                {
                    "internalType": "address",
                    "name": "",
                    "type": "address"
                }
            ],
            "stateMutability": "view",
            "type": "function"
        },
        {
            "inputs": [
                {
                    "internalType": "uint256",
                    "name": "tokenId",
                    "type": "uint256"
                }
            ],
            "name": "ownerOf",
            "outputs": [
                {
                    "internalType": "address",
                    "name": "",
                    "type": "address"
                }
            ],
            "stateMutability": "view",
            "type": "function"
        },
        {
            "inputs": [],
            "name": "renounceOwnership",
            "outputs": [],
            "stateMutability": "nonpayable",
            "type": "function"
        },
        {
            "inputs": [
                {
                    "internalType": "address",
                    "name": "to",
                    "type": "address"
                },
                {
                    "internalType": "uint256",
                    "name": "tokenId",
                    "type": "uint256"
                }
            ],
            "name": "safeMint",
            "outputs": [],
            "stateMutability": "nonpayable",
            "type": "function"
        },
        {
            "inputs": [
                {
                    "internalType": "address",
                    "name": "from",
                    "type": "address"
                },
                {
                    "internalType": "address",
                    "name": "to",
                    "type": "address"
                },
                {
                    "internalType": "uint256",
                    "name": "tokenId",
                    "type": "uint256"
                }
            ],
            "name": "safeTransferFrom",
            "outputs": [],
            "stateMutability": "nonpayable",
            "type": "function"
        },
        {
            "inputs": [
                {
                    "internalType": "address",
                    "name": "from",
                    "type": "address"
                },
                {
                    "internalType": "address",
                    "name": "to",
                    "type": "address"
                },
                {
                    "internalType": "uint256",
                    "name": "tokenId",
                    "type": "uint256"
                },
                {
                    "internalType": "bytes",
                    "name": "data",
                    "type": "bytes"
                }
            ],
            "name": "safeTransferFrom",
            "outputs": [],
            "stateMutability": "nonpayable",
            "type": "function"
        },
        {
            "inputs": [
                {
                    "internalType": "address",
                    "name": "operator",
                    "type": "address"
                },
                {
                    "internalType": "bool",
                    "name": "approved",
                    "type": "bool"
                }
            ],
            "name": "setApprovalForAll",
            "outputs": [],
            "stateMutability": "nonpayable",
            "type": "function"
        },
        {
            "inputs": [
                {
                    "internalType": "bytes4",
                    "name": "interfaceId",
                    "type": "bytes4"
                }
            ],
            "name": "supportsInterface",
            "outputs": [
                {
                    "internalType": "bool",
                    "name": "",
                    "type": "bool"
                }
            ],
            "stateMutability": "view",
            "type": "function"
        },
        {
            "inputs": [],
            "name": "symbol",
            "outputs": [
                {
                    "internalType": "string",
                    "name": "",
                    "type": "string"
                }
            ],
            "stateMutability": "view",
            "type": "function"
        },
        {
            "inputs": [
                {
                    "internalType": "uint256",
                    "name": "tokenId",
                    "type": "uint256"
                }
            ],
            "name": "tokenURI",
            "outputs": [
                {
                    "internalType": "string",
                    "name": "",
                    "type": "string"
                }
            ],
            "stateMutability": "view",
            "type": "function"
        },
        {
            "inputs": [
                {
                    "internalType": "address",
                    "name": "from",
                    "type": "address"
                },
                {
                    "internalType": "address",
                    "name": "to",
                    "type": "address"
                },
                {
                    "internalType": "uint256",
                    "name": "tokenId",
                    "type": "uint256"
                }
            ],
            "name": "transferFrom",
            "outputs": [],
            "stateMutability": "nonpayable",
            "type": "function"
        },
        {
            "inputs": [
                {
                    "internalType": "address",
                    "name": "newOwner",
                    "type": "address"
                }
            ],
            "name": "transferOwnership",
            "outputs": [],
            "stateMutability": "nonpayable",
            "type": "function"
        }
    ],
    "bytecode": "0x60806040523480156200001157600080fd5b50604051620026f1380380620026f1833981810160405281019062000037919062000288565b806040518060400160405280600781526020017f4d79546f6b656e000000000000000000000000000000000000000000000000008152506040518060400160405280600381526020017f4d544b00000000000000000000000000000000000000000000000000000000008152508160009081620000b5919062000534565b508060019081620000c7919062000534565b505050600073ffffffffffffffffffffffffffffffffffffffff168173ffffffffffffffffffffffffffffffffffffffff16036200013f5760006040517f1e4fbdf70000000000000000000000000000000000000000000000000000000081526004016200013691906200062c565b60405180910390fd5b62000150816200015860201b60201c565b505062000649565b6000600660009054906101000a900473ffffffffffffffffffffffffffffffffffffffff16905081600660006101000a81548173ffffffffffffffffffffffffffffffffffffffff021916908373ffffffffffffffffffffffffffffffffffffffff1602179055508173ffffffffffffffffffffffffffffffffffffffff168173ffffffffffffffffffffffffffffffffffffffff167f8be0079c531659141344cd1fd0a4f28419497f9722a3daafe3b4186f6b6457e060405160405180910390a35050565b600080fd5b600073ffffffffffffffffffffffffffffffffffffffff82169050919050565b6000620002508262000223565b9050919050565b620002628162000243565b81146200026e57600080fd5b50565b600081519050620002828162000257565b92915050565b600060208284031215620002a157620002a06200021e565b5b6000620002b18482850162000271565b91505092915050565b600081519050919050565b7f4e487b7100000000000000000000000000000000000000000000000000000000600052604160045260246000fd5b7f4e487b7100000000000000000000000000000000000000000000000000000000600052602260045260246000fd5b600060028204905060018216806200033c57607f821691505b602082108103620003525762000351620002f4565b5b50919050565b60008190508160005260206000209050919050565b60006020601f8301049050919050565b600082821b905092915050565b600060088302620003bc7fffffffffffffffffffffffffffffffffffffffffffffffffffffffffffffffff826200037d565b620003c886836200037d565b95508019841693508086168417925050509392505050565b6000819050919050565b6000819050919050565b6000620004156200040f6200040984620003e0565b620003ea565b620003e0565b9050919050565b6000819050919050565b6200043183620003f4565b6200044962000440826200041c565b8484546200038a565b825550505050565b600090565b6200046062000451565b6200046d81848462000426565b505050565b5b8181101562000495576200048960008262000456565b60018101905062000473565b5050565b601f821115620004e457620004ae8162000358565b620004b9846200036d565b81016020851015620004c9578190505b620004e1620004d8856200036d565b83018262000472565b50505b505050565b600082821c905092915050565b60006200050960001984600802620004e9565b1980831691505092915050565b6000620005248383620004f6565b9150826002028217905092915050565b6200053f82620002ba565b67ffffffffffffffff8111156200055b576200055a620002c5565b5b62000567825462000323565b6200057482828562000499565b600060209050601f831160018114620005ac576000841562000597578287015190505b620005a3858262000516565b86555062000613565b601f198416620005bc8662000358565b60005b82811015620005e657848901518255600182019150602085019450602081019050620005bf565b8683101562000606578489015162000602601f891682620004f6565b8355505b6001600288020188555050505b505050505050565b620006268162000243565b82525050565b60006020820190506200064360008301846200061b565b92915050565b61209880620006596000396000f3fe608060405234801561001057600080fd5b506004361061010b5760003560e01c8063715018a6116100a2578063a22cb46511610071578063a22cb465146102a4578063b88d4fde146102c0578063c87b56dd146102dc578063e985e9c51461030c578063f2fde38b1461033c5761010b565b8063715018a6146102425780638da5cb5b1461024c57806395d89b411461026a578063a1448194146102885761010b565b806323b872dd116100de57806323b872dd146101aa57806342842e0e146101c65780636352211e146101e257806370a08231146102125761010b565b806301ffc9a71461011057806306fdde0314610140578063081812fc1461015e578063095ea7b31461018e575b600080fd5b61012a600480360381019061012591906118e2565b610358565b604051610137919061192a565b60405180910390f35b61014861043a565b60405161015591906119d5565b60405180910390f35b61017860048036038101906101739190611a2d565b6104cc565b6040516101859190611a9b565b60405180910390f35b6101a860048036038101906101a39190611ae2565b6104e8565b005b6101c460048036038101906101bf9190611b22565b6104fe565b005b6101e060048036038101906101db9190611b22565b610600565b005b6101fc60048036038101906101f79190611a2d565b610620565b6040516102099190611a9b565b60405180910390f35b61022c60048036038101906102279190611b75565b610632565b6040516102399190611bb1565b60405180910390f35b61024a6106ec565b005b610254610700565b6040516102619190611a9b565b60405180910390f35b61027261072a565b60405161027f91906119d5565b60405180910390f35b6102a2600480360381019061029d9190611ae2565b6107bc565b005b6102be60048036038101906102b99190611bf8565b6107d2565b005b6102da60048036038101906102d59190611d6d565b6107e8565b005b6102f660048036038101906102f19190611a2d565b610805565b60405161030391906119d5565b60405180910390f35b61032660048036038101906103219190611df0565b61086e565b604051610333919061192a565b60405180910390f35b61035660048036038101906103519190611b75565b610902565b005b60007f80ac58cd000000000000000000000000000000000000000000000000000000007bffffffffffffffffffffffffffffffffffffffffffffffffffffffff1916827bffffffffffffffffffffffffffffffffffffffffffffffffffffffff1916148061042357507f5b5e139f000000000000000000000000000000000000000000000000000000007bffffffffffffffffffffffffffffffffffffffffffffffffffffffff1916827bffffffffffffffffffffffffffffffffffffffffffffffffffffffff1916145b80610433575061043282610988565b5b9050919050565b60606000805461044990611e5f565b80601f016020809104026020016040519081016040528092919081815260200182805461047590611e5f565b80156104c25780601f10610497576101008083540402835291602001916104c2565b820191906000526020600020905b8154815290600101906020018083116104a557829003601f168201915b5050505050905090565b60006104d7826109f2565b506104e182610a7a565b9050919050565b6104fa82826104f5610ab7565b610abf565b5050565b600073ffffffffffffffffffffffffffffffffffffffff168273ffffffffffffffffffffffffffffffffffffffff16036105705760006040517f64a0ae920000000000000000000000000000000000000000000000000000000081526004016105679190611a9b565b60405180910390fd5b6000610584838361057f610ab7565b610ad1565b90508373ffffffffffffffffffffffffffffffffffffffff168173ffffffffffffffffffffffffffffffffffffffff16146105fa578382826040517f64283d7b0000000000000000000000000000000000000000000000000000000081526004016105f193929190611e90565b60405180910390fd5b50505050565b61061b838383604051806020016040528060008152506107e8565b505050565b600061062b826109f2565b9050919050565b60008073ffffffffffffffffffffffffffffffffffffffff168273ffffffffffffffffffffffffffffffffffffffff16036106a55760006040517f89c62b6400000000000000000000000000000000000000000000000000000000815260040161069c9190611a9b565b60405180910390fd5b600360008373ffffffffffffffffffffffffffffffffffffffff1673ffffffffffffffffffffffffffffffffffffffff168152602001908152602001600020549050919050565b6106f4610ceb565b6106fe6000610d72565b565b6000600660009054906101000a900473ffffffffffffffffffffffffffffffffffffffff16905090565b60606001805461073990611e5f565b80601f016020809104026020016040519081016040528092919081815260200182805461076590611e5f565b80156107b25780601f10610787576101008083540402835291602001916107b2565b820191906000526020600020905b81548152906001019060200180831161079557829003601f168201915b5050505050905090565b6107c4610ceb565b6107ce8282610e38565b5050565b6107e46107dd610ab7565b8383610e56565b5050565b6107f38484846104fe565b6107ff84848484610fc5565b50505050565b6060610810826109f2565b50600061081b61117c565b9050600081511161083b5760405180602001604052806000815250610866565b80610845846111b9565b604051602001610856929190611f03565b6040516020818303038152906040525b915050919050565b6000600560008473ffffffffffffffffffffffffffffffffffffffff1673ffffffffffffffffffffffffffffffffffffffff16815260200190815260200160002060008373ffffffffffffffffffffffffffffffffffffffff1673ffffffffffffffffffffffffffffffffffffffff16815260200190815260200160002060009054906101000a900460ff16905092915050565b61090a610ceb565b600073ffffffffffffffffffffffffffffffffffffffff168173ffffffffffffffffffffffffffffffffffffffff160361097c5760006040517f1e4fbdf70000000000000000000000000000000000000000000000000000000081526004016109739190611a9b565b60405180910390fd5b61098581610d72565b50565b60007f01ffc9a7000000000000000000000000000000000000000000000000000000007bffffffffffffffffffffffffffffffffffffffffffffffffffffffff1916827bffffffffffffffffffffffffffffffffffffffffffffffffffffffff1916149050919050565b6000806109fe83611287565b9050600073ffffffffffffffffffffffffffffffffffffffff168173ffffffffffffffffffffffffffffffffffffffff1603610a7157826040517f7e273289000000000000000000000000000000000000000000000000000000008152600401610a689190611bb1565b60405180910390fd5b80915050919050565b60006004600083815260200190815260200160002060009054906101000a900473ffffffffffffffffffffffffffffffffffffffff169050919050565b600033905090565b610acc83838360016112c4565b505050565b600080610add84611287565b9050600073ffffffffffffffffffffffffffffffffffffffff168373ffffffffffffffffffffffffffffffffffffffff1614610b1f57610b1e818486611489565b5b600073ffffffffffffffffffffffffffffffffffffffff168173ffffffffffffffffffffffffffffffffffffffff1614610bb057610b616000856000806112c4565b6001600360008373ffffffffffffffffffffffffffffffffffffffff1673ffffffffffffffffffffffffffffffffffffffff168152602001908152602001600020600082825403925050819055505b600073ffffffffffffffffffffffffffffffffffffffff168573ffffffffffffffffffffffffffffffffffffffff1614610c33576001600360008773ffffffffffffffffffffffffffffffffffffffff1673ffffffffffffffffffffffffffffffffffffffff168152602001908152602001600020600082825401925050819055505b846002600086815260200190815260200160002060006101000a81548173ffffffffffffffffffffffffffffffffffffffff021916908373ffffffffffffffffffffffffffffffffffffffff160217905550838573ffffffffffffffffffffffffffffffffffffffff168273ffffffffffffffffffffffffffffffffffffffff167fddf252ad1be2c89b69c2b068fc378daa952ba7f163c4a11628f55a4df523b3ef60405160405180910390a4809150509392505050565b610cf3610ab7565b73ffffffffffffffffffffffffffffffffffffffff16610d11610700565b73ffffffffffffffffffffffffffffffffffffffff1614610d7057610d34610ab7565b6040517f118cdaa7000000000000000000000000000000000000000000000000000000008152600401610d679190611a9b565b60405180910390fd5b565b6000600660009054906101000a900473ffffffffffffffffffffffffffffffffffffffff16905081600660006101000a81548173ffffffffffffffffffffffffffffffffffffffff021916908373ffffffffffffffffffffffffffffffffffffffff1602179055508173ffffffffffffffffffffffffffffffffffffffff168173ffffffffffffffffffffffffffffffffffffffff167f8be0079c531659141344cd1fd0a4f28419497f9722a3daafe3b4186f6b6457e060405160405180910390a35050565b610e5282826040518060200160405280600081525061154d565b5050565b600073ffffffffffffffffffffffffffffffffffffffff168273ffffffffffffffffffffffffffffffffffffffff1603610ec757816040517f5b08ba18000000000000000000000000000000000000000000000000000000008152600401610ebe9190611a9b565b60405180910390fd5b80600560008573ffffffffffffffffffffffffffffffffffffffff1673ffffffffffffffffffffffffffffffffffffffff16815260200190815260200160002060008473ffffffffffffffffffffffffffffffffffffffff1673ffffffffffffffffffffffffffffffffffffffff16815260200190815260200160002060006101000a81548160ff0219169083151502179055508173ffffffffffffffffffffffffffffffffffffffff168373ffffffffffffffffffffffffffffffffffffffff167f17307eab39ab6107e8899845ad3d59bd9653f200f220920489ca2b5937696c3183604051610fb8919061192a565b60405180910390a3505050565b60008373ffffffffffffffffffffffffffffffffffffffff163b1115611176578273ffffffffffffffffffffffffffffffffffffffff1663150b7a02611009610ab7565b8685856040518563ffffffff1660e01b815260040161102b9493929190611f7c565b6020604051808303816000875af192505050801561106757506040513d601f19601f820116820180604052508101906110649190611fdd565b60015b6110eb573d8060008114611097576040519150601f19603f3d011682016040523d82523d6000602084013e61109c565b606091505b5060008151036110e357836040517f64a0ae920000000000000000000000000000000000000000000000000000000081526004016110da9190611a9b565b60405180910390fd5b805181602001fd5b63150b7a0260e01b7bffffffffffffffffffffffffffffffffffffffffffffffffffffffff1916817bffffffffffffffffffffffffffffffffffffffffffffffffffffffff19161461117457836040517f64a0ae9200000000000000000000000000000000000000000000000000000000815260040161116b9190611a9b565b60405180910390fd5b505b50505050565b60606040518060400160405280601081526020017f68747470733a2f2f626173652d75726900000000000000000000000000000000815250905090565b6060600060016111c884611569565b01905060008167ffffffffffffffff8111156111e7576111e6611c42565b5b6040519080825280601f01601f1916602001820160405280156112195781602001600182028036833780820191505090505b509050600082602001820190505b60011561127c578080600190039150507f3031323334353637383961626364656600000000000000000000000000000000600a86061a8153600a85816112705761126f61200a565b5b04945060008503611227575b819350505050919050565b60006002600083815260200190815260200160002060009054906101000a900473ffffffffffffffffffffffffffffffffffffffff169050919050565b80806112fd5750600073ffffffffffffffffffffffffffffffffffffffff168273ffffffffffffffffffffffffffffffffffffffff1614155b1561143157600061130d846109f2565b9050600073ffffffffffffffffffffffffffffffffffffffff168373ffffffffffffffffffffffffffffffffffffffff161415801561137857508273ffffffffffffffffffffffffffffffffffffffff168173ffffffffffffffffffffffffffffffffffffffff1614155b801561138b5750611389818461086e565b155b156113cd57826040517fa9fbf51f0000000000000000000000000000000000000000000000000000000081526004016113c49190611a9b565b60405180910390fd5b811561142f57838573ffffffffffffffffffffffffffffffffffffffff168273ffffffffffffffffffffffffffffffffffffffff167f8c5be1e5ebec7d5bd14f71427d1e84f3dd0314c0f7b2291e5b200ac8c7c3b92560405160405180910390a45b505b836004600085815260200190815260200160002060006101000a81548173ffffffffffffffffffffffffffffffffffffffff021916908373ffffffffffffffffffffffffffffffffffffffff16021790555050505050565b6114948383836116bc565b61154857600073ffffffffffffffffffffffffffffffffffffffff168373ffffffffffffffffffffffffffffffffffffffff160361150957806040517f7e2732890000000000000000000000000000000000000000000000000000000081526004016115009190611bb1565b60405180910390fd5b81816040517f177e802f00000000000000000000000000000000000000000000000000000000815260040161153f929190612039565b60405180910390fd5b505050565b611557838361177d565b6115646000848484610fc5565b505050565b600080600090507a184f03e93ff9f4daa797ed6e38ed64bf6a1f01000000000000000083106115c7577a184f03e93ff9f4daa797ed6e38ed64bf6a1f01000000000000000083816115bd576115bc61200a565b5b0492506040810190505b6d04ee2d6d415b85acef81000000008310611604576d04ee2d6d415b85acef810000000083816115fa576115f961200a565b5b0492506020810190505b662386f26fc10000831061163357662386f26fc1000083816116295761162861200a565b5b0492506010810190505b6305f5e100831061165c576305f5e10083816116525761165161200a565b5b0492506008810190505b61271083106116815761271083816116775761167661200a565b5b0492506004810190505b606483106116a4576064838161169a5761169961200a565b5b0492506002810190505b600a83106116b3576001810190505b80915050919050565b60008073ffffffffffffffffffffffffffffffffffffffff168373ffffffffffffffffffffffffffffffffffffffff161415801561177457508273ffffffffffffffffffffffffffffffffffffffff168473ffffffffffffffffffffffffffffffffffffffff1614806117355750611734848461086e565b5b8061177357508273ffffffffffffffffffffffffffffffffffffffff1661175b83610a7a565b73ffffffffffffffffffffffffffffffffffffffff16145b5b90509392505050565b600073ffffffffffffffffffffffffffffffffffffffff168273ffffffffffffffffffffffffffffffffffffffff16036117ef5760006040517f64a0ae920000000000000000000000000000000000000000000000000000000081526004016117e69190611a9b565b60405180910390fd5b60006117fd83836000610ad1565b9050600073ffffffffffffffffffffffffffffffffffffffff168173ffffffffffffffffffffffffffffffffffffffff16146118715760006040517f73c6ac6e0000000000000000000000000000000000000000000000000000000081526004016118689190611a9b565b60405180910390fd5b505050565b6000604051905090565b600080fd5b600080fd5b60007fffffffff0000000000000000000000000000000000000000000000000000000082169050919050565b6118bf8161188a565b81146118ca57600080fd5b50565b6000813590506118dc816118b6565b92915050565b6000602082840312156118f8576118f7611880565b5b6000611906848285016118cd565b91505092915050565b60008115159050919050565b6119248161190f565b82525050565b600060208201905061193f600083018461191b565b92915050565b600081519050919050565b600082825260208201905092915050565b60005b8381101561197f578082015181840152602081019050611964565b60008484015250505050565b6000601f19601f8301169050919050565b60006119a782611945565b6119b18185611950565b93506119c1818560208601611961565b6119ca8161198b565b840191505092915050565b600060208201905081810360008301526119ef818461199c565b905092915050565b6000819050919050565b611a0a816119f7565b8114611a1557600080fd5b50565b600081359050611a2781611a01565b92915050565b600060208284031215611a4357611a42611880565b5b6000611a5184828501611a18565b91505092915050565b600073ffffffffffffffffffffffffffffffffffffffff82169050919050565b6000611a8582611a5a565b9050919050565b611a9581611a7a565b82525050565b6000602082019050611ab06000830184611a8c565b92915050565b611abf81611a7a565b8114611aca57600080fd5b50565b600081359050611adc81611ab6565b92915050565b60008060408385031215611af957611af8611880565b5b6000611b0785828601611acd565b9250506020611b1885828601611a18565b9150509250929050565b600080600060608486031215611b3b57611b3a611880565b5b6000611b4986828701611acd565b9350506020611b5a86828701611acd565b9250506040611b6b86828701611a18565b9150509250925092565b600060208284031215611b8b57611b8a611880565b5b6000611b9984828501611acd565b91505092915050565b611bab816119f7565b82525050565b6000602082019050611bc66000830184611ba2565b92915050565b611bd58161190f565b8114611be057600080fd5b50565b600081359050611bf281611bcc565b92915050565b60008060408385031215611c0f57611c0e611880565b5b6000611c1d85828601611acd565b9250506020611c2e85828601611be3565b9150509250929050565b600080fd5b600080fd5b7f4e487b7100000000000000000000000000000000000000000000000000000000600052604160045260246000fd5b611c7a8261198b565b810181811067ffffffffffffffff82111715611c9957611c98611c42565b5b80604052505050565b6000611cac611876565b9050611cb88282611c71565b919050565b600067ffffffffffffffff821115611cd857611cd7611c42565b5b611ce18261198b565b9050602081019050919050565b82818337600083830152505050565b6000611d10611d0b84611cbd565b611ca2565b905082815260208101848484011115611d2c57611d2b611c3d565b5b611d37848285611cee565b509392505050565b600082601f830112611d5457611d53611c38565b5b8135611d64848260208601611cfd565b91505092915050565b60008060008060808587031215611d8757611d86611880565b5b6000611d9587828801611acd565b9450506020611da687828801611acd565b9350506040611db787828801611a18565b925050606085013567ffffffffffffffff811115611dd857611dd7611885565b5b611de487828801611d3f565b91505092959194509250565b60008060408385031215611e0757611e06611880565b5b6000611e1585828601611acd565b9250506020611e2685828601611acd565b9150509250929050565b7f4e487b7100000000000000000000000000000000000000000000000000000000600052602260045260246000fd5b60006002820490506001821680611e7757607f821691505b602082108103611e8a57611e89611e30565b5b50919050565b6000606082019050611ea56000830186611a8c565b611eb26020830185611ba2565b611ebf6040830184611a8c565b949350505050565b600081905092915050565b6000611edd82611945565b611ee78185611ec7565b9350611ef7818560208601611961565b80840191505092915050565b6000611f0f8285611ed2565b9150611f1b8284611ed2565b91508190509392505050565b600081519050919050565b600082825260208201905092915050565b6000611f4e82611f27565b611f588185611f32565b9350611f68818560208601611961565b611f718161198b565b840191505092915050565b6000608082019050611f916000830187611a8c565b611f9e6020830186611a8c565b611fab6040830185611ba2565b8181036060830152611fbd8184611f43565b905095945050505050565b600081519050611fd7816118b6565b92915050565b600060208284031215611ff357611ff2611880565b5b600061200184828501611fc8565b91505092915050565b7f4e487b7100000000000000000000000000000000000000000000000000000000600052601260045260246000fd5b600060408201905061204e6000830185611a8c565b61205b6020830184611ba2565b939250505056fea26469706673582212205dcfa5c3a441e21035939abc0caab88ae135a1ce9e3743daa5078cffee60e39a64736f6c63430008140033",
    "linkReferences": {},
    "deployedLinkReferences": {}
}